{
  "_format": "hh-sol-artifact-1",
  "contractName": "EscrowWithoutArbiter",
  "sourceName": "contracts/EscrowWithoutArbiter.sol",
  "abi": [
    {
      "inputs": [
        {
          "internalType": "address",
          "name": "_beneficiary",
          "type": "address"
        },
        {
          "internalType": "string",
          "name": "_proof",
          "type": "string"
        }
      ],
      "stateMutability": "payable",
      "type": "constructor"
    },
    {
      "anonymous": false,
      "inputs": [
        {
          "indexed": false,
          "internalType": "uint256",
          "name": "",
          "type": "uint256"
        }
      ],
      "name": "Approved",
      "type": "event"
    },
    {
      "inputs": [
        {
          "internalType": "string",
          "name": "_proof",
          "type": "string"
        }
      ],
      "name": "approve",
      "outputs": [],
      "stateMutability": "nonpayable",
      "type": "function"
    },
    {
      "inputs": [],
      "name": "beneficiary",
      "outputs": [
        {
          "internalType": "address",
          "name": "",
          "type": "address"
        }
      ],
      "stateMutability": "view",
      "type": "function"
    },
    {
      "inputs": [],
      "name": "depositor",
      "outputs": [
        {
          "internalType": "address",
          "name": "",
          "type": "address"
        }
      ],
      "stateMutability": "view",
      "type": "function"
    },
    {
      "inputs": [],
      "name": "proofHash",
      "outputs": [
        {
          "internalType": "bytes32",
          "name": "",
          "type": "bytes32"
        }
      ],
      "stateMutability": "view",
      "type": "function"
    }
  ],
  "bytecode": "0x608060405260405162000af038038062000af08339818101604052810190620000299190620002d9565b816000806101000a81548173ffffffffffffffffffffffffffffffffffffffff021916908373ffffffffffffffffffffffffffffffffffffffff16021790555033600160006101000a81548173ffffffffffffffffffffffffffffffffffffffff021916908373ffffffffffffffffffffffffffffffffffffffff16021790555080604051602001620000bd91906200038c565b604051602081830303815290604052805190602001206002819055505050620003a5565b6000604051905090565b600080fd5b600080fd5b600073ffffffffffffffffffffffffffffffffffffffff82169050919050565b60006200012282620000f5565b9050919050565b620001348162000115565b81146200014057600080fd5b50565b600081519050620001548162000129565b92915050565b600080fd5b600080fd5b6000601f19601f8301169050919050565b7f4e487b7100000000000000000000000000000000000000000000000000000000600052604160045260246000fd5b620001af8262000164565b810181811067ffffffffffffffff82111715620001d157620001d062000175565b5b80604052505050565b6000620001e6620000e1565b9050620001f48282620001a4565b919050565b600067ffffffffffffffff82111562000217576200021662000175565b5b620002228262000164565b9050602081019050919050565b60005b838110156200024f57808201518184015260208101905062000232565b60008484015250505050565b6000620002726200026c84620001f9565b620001da565b9050828152602081018484840111156200029157620002906200015f565b5b6200029e8482856200022f565b509392505050565b600082601f830112620002be57620002bd6200015a565b5b8151620002d08482602086016200025b565b91505092915050565b60008060408385031215620002f357620002f2620000eb565b5b6000620003038582860162000143565b925050602083015167ffffffffffffffff811115620003275762000326620000f0565b5b6200033585828601620002a6565b9150509250929050565b600081519050919050565b600081905092915050565b600062000362826200033f565b6200036e81856200034a565b9350620003808185602086016200022f565b80840191505092915050565b60006200039a828462000355565b915081905092915050565b61073b80620003b56000396000f3fe608060405234801561001057600080fd5b506004361061004c5760003560e01c806338af3eed146100515780637a36a1901461006f578063b67b71631461008d578063c7c4ff46146100a9575b600080fd5b6100596100c7565b6040516100669190610328565b60405180910390f35b6100776100eb565b604051610084919061035c565b60405180910390f35b6100a760048036038101906100a291906104d1565b6100f1565b005b6100b16102c1565b6040516100be9190610328565b60405180910390f35b60008054906101000a900473ffffffffffffffffffffffffffffffffffffffff1681565b60025481565b60008054906101000a900473ffffffffffffffffffffffffffffffffffffffff1673ffffffffffffffffffffffffffffffffffffffff163373ffffffffffffffffffffffffffffffffffffffff161461014957600080fd5b6002548160405160200161015d919061058b565b60405160208183030381529060405280519060200120146101b3576040517f08c379a00000000000000000000000000000000000000000000000000000000081526004016101aa906105ff565b60405180910390fd5b600047905060008060009054906101000a900473ffffffffffffffffffffffffffffffffffffffff1673ffffffffffffffffffffffffffffffffffffffff16826040516101ff90610650565b60006040518083038185875af1925050503d806000811461023c576040519150601f19603f3d011682016040523d82523d6000602084013e610241565b606091505b5050905080610285576040517f08c379a000000000000000000000000000000000000000000000000000000000815260040161027c906106b1565b60405180910390fd5b7f3ad93af63cb7967b23e4fb500b7d7d28b07516325dcf341f88bebf959d82c1cb826040516102b491906106ea565b60405180910390a1505050565b600160009054906101000a900473ffffffffffffffffffffffffffffffffffffffff1681565b600073ffffffffffffffffffffffffffffffffffffffff82169050919050565b6000610312826102e7565b9050919050565b61032281610307565b82525050565b600060208201905061033d6000830184610319565b92915050565b6000819050919050565b61035681610343565b82525050565b6000602082019050610371600083018461034d565b92915050565b6000604051905090565b600080fd5b600080fd5b600080fd5b600080fd5b6000601f19601f8301169050919050565b7f4e487b7100000000000000000000000000000000000000000000000000000000600052604160045260246000fd5b6103de82610395565b810181811067ffffffffffffffff821117156103fd576103fc6103a6565b5b80604052505050565b6000610410610377565b905061041c82826103d5565b919050565b600067ffffffffffffffff82111561043c5761043b6103a6565b5b61044582610395565b9050602081019050919050565b82818337600083830152505050565b600061047461046f84610421565b610406565b9050828152602081018484840111156104905761048f610390565b5b61049b848285610452565b509392505050565b600082601f8301126104b8576104b761038b565b5b81356104c8848260208601610461565b91505092915050565b6000602082840312156104e7576104e6610381565b5b600082013567ffffffffffffffff81111561050557610504610386565b5b610511848285016104a3565b91505092915050565b600081519050919050565b600081905092915050565b60005b8381101561054e578082015181840152602081019050610533565b60008484015250505050565b60006105658261051a565b61056f8185610525565b935061057f818560208601610530565b80840191505092915050565b6000610597828461055a565b915081905092915050565b600082825260208201905092915050565b7f496e76616c69642070726f6f6600000000000000000000000000000000000000600082015250565b60006105e9600d836105a2565b91506105f4826105b3565b602082019050919050565b60006020820190508181036000830152610618816105dc565b9050919050565b600081905092915050565b50565b600061063a60008361061f565b91506106458261062a565b600082019050919050565b600061065b8261062d565b9150819050919050565b7f4661696c656420746f2073656e64204574686572000000000000000000000000600082015250565b600061069b6014836105a2565b91506106a682610665565b602082019050919050565b600060208201905081810360008301526106ca8161068e565b9050919050565b6000819050919050565b6106e4816106d1565b82525050565b60006020820190506106ff60008301846106db565b9291505056fea26469706673582212207c3b3b5088fcf1b80ea45d774737687b6705157c5f33c98cf49c10a7c275d77f64736f6c63430008110033",
  "linkReferences": {},
  "deployedLinkReferences": {}
}